:100000000C946B000C9493000C9493000C9493004C
:100010000C9493000C9493000C9493000C94930014
:100020000C9493000C9493000C9493000C94930004
:100030000C9493000C9493000C9493000C949300F4
:100040000C9460160C9493000C942E160C940816C5
:100050000C9493000C9493000C9493000C949300D4
:100060000C94AA160C9493007C3C3E5E2B3D3F2FD3
:100070005B5D3B2C2A225C0000000000250028006C
:100080002B0000000008000201000003040700002C
:1000900000000000000000000000240027002A00EB
:1000A00000000000230026002900040404040404C6
:1000B0000404020202020202030303030303010217
:1000C00004081020408001020408102001020408E6
:1000D0001020C917CD1D11241FBECFEFD8E0DEBF01
:1000E000CDBF26E0ACE1B2E001C01D92A630B20760
:1000F000E1F712E0A0E0B1E0ECE5F5E402C0059024
:100100000D92AC31B107D9F710E0CAE6D0E004C0D7
:100110002197FE010E948D20C936D107C9F70E94A0
:1001200045180C94A1220C940000CF92DF92EF921C
:10013000FF92CF93DF93B091EA05A0E08111AB2F3E
:100140008091EB0590E0880F991FAC0140565F4FFE
:10015000C090F005D090F105E090F205F090F30525
:1001600030E020E0FA01C591D491E881B90190E036
:1001700080E0EB23EA130AC02F5F3F4F6C157D052B
:100180008E059F0578F36FEF7FEFCB01DF91CF9165
:10019000FF90EF90DF90CF90089508950895AF926B
:1001A000BF92CF92DF92EF92FF920F931F93CF9364
:1001B000DF936C017B018B01040F151FEB015E01C6
:1001C000AE18BF08C017D10759F06991D601ED915B
:1001D000FC910190F081E02DC6010995892B79F7FA
:1001E000C501DF91CF911F910F91FF90EF90DF90AC
:1001F000CF90BF90AF900895FC01538D448D252F73
:1002000030E0842F90E0821B930B541710F0CF96B0
:10021000089501970895FC01918D828D981761F0E2
:10022000A28DAE0FBF2FB11D5D968C91928D9F5FF9
:100230009F73928F90E008958FEF9FEF0895FC01D8
:10024000918D828D981731F0828DE80FF11D858D8B
:1002500090E008958FEF9FEF0895FC01918D228D1E
:10026000892F90E0805C9F4F821B91098F739927A3
:1002700008958FEE94E00E942D0121E0892B09F46E
:1002800020E0822F089580E090E0892B29F00E94E1
:10029000390181110C9400000895FC01A48DA80F70
:1002A000B92FB11DA35ABF4F2C91848D90E00196B8
:1002B0008F739927848FA689B7892C93A089B189D8
:1002C0008C91837080648C93938D848D981306C079
:1002D0000288F389E02D80818F7D80830895EF92DD
:1002E000FF920F931F93CF93DF93EC0181E0888FF0
:1002F0009B8D8C8D98131AC0E889F989808185FFC0
:1003000015C09FB7F894EE89FF896083E889F98961
:1003100080818370806480839FBF81E090E0DF9163
:10032000CF911F910F91FF90EF900895F62E0B8DB6
:1003300010E00F5F1F4F0F731127E02E8C8D8E1171
:100340000CC00FB607FCFACFE889F989808185FFD8
:10035000F5CFCE010E944D01F1CFEB8DEC0FFD2FBB
:10036000F11DE35AFF4FF0829FB7F8940B8FEA8993
:10037000FB8980818062CFCFCF93DF93EC01888DA2
:100380008823B9F0AA89BB89E889F9898C9185FD10
:1003900003C0808186FD0DC00FB607FCF7CF8C919E
:1003A00085FFF2CF808185FFEDCFCE010E944D0108
:1003B000E9CFDF91CF91089590E0FC01EE57FF4F18
:1003C0002491FC01E254FF4F3491FC01E655FF4FAC
:1003D000E491EE23C9F0222339F0233001F1A8F48F
:1003E000213019F1223029F1F0E0EE0FFF1FE8581B
:1003F000FF4FA591B4918FB7F894EC91611126C08D
:1004000030953E233C938FBF08952730A9F02830C4
:10041000C9F0243049F7809180008F7D03C080911E
:1004200080008F7780938000DFCF84B58F7784BD85
:10043000DBCF84B58F7DFBCF8091B0008F77809329
:10044000B000D2CF8091B0008F7DF9CF3E2BDACFB4
:10045000CF93DF9390E0FC01E254FF4F2491865547
:100460009F4FFC0184918823C9F090E0880F991F69
:10047000FC01EA56FF4FA591B491FC01E858FF4FEB
:10048000C591D49161110DC09FB7F8948C912095BE
:1004900082238C938881282328839FBFDF91CF916B
:1004A0000895623051F49FB7F8943C91822F809563
:1004B00083238C93E8812E2BEFCF8FB7F894EC91A8
:1004C0002E2B2C938FBFEACF3FB7F89480916C020C
:1004D00090916D02A0916E02B0916F0226B5A89B1B
:1004E00005C02F3F19F00196A11DB11D3FBFBA2FC6
:1004F000A92F982F8827BC01CD01620F711D811D86
:10050000911D42E0660F771F881F991F4A95D1F70A
:1005100008958F929F92AF92BF92CF92DF92EF9207
:10052000FF924B015C010E9464026B017C010E94FE
:1005300064026C197D098E099F09683E734081052C
:100540009105A8F321E0821A9108A108B10888EE6C
:10055000C80E83E0D81EE11CF11C81149104A10493
:10056000B10429F7FF90EF90DF90CF90BF90AF904C
:100570009F908F9008952FB7F894609168027091C2
:10058000690280916A0290916B022FBF0895CF9209
:10059000DF92EF92FF920F931F93CF93DF93CDB72C
:1005A000DEB7C054D1400FB6F894DEBF0FBECDBF4A
:1005B0000E94BB020091EC051091ED052091EE0523
:1005C0003091EF056B017C01C01AD10AE20AF30AEF
:1005D00097018601003D17402105310590F4809177
:1005E000F405C05CDE4F0FB6F894DEBF0FBECDBF82
:1005F000DF91CF911F910F91FF90EF90DF90CF90FF
:1006000008956093EC057093ED058093EE0590934B
:10061000EF051092E7051092E6051092E50510929D
:10062000E4051092E30562E08091E8050E9428024B
:1006300061E070E080E090E00E94890261E08091DA
:10064000E8050E94280260E08091E8050E94DC0134
:100650008091E9058551823020F58BE291E1019787
:10066000F1F762E08091E8050E9428028091F5058B
:1006700090E08230910538F0880F991F880F991FFC
:1006800005970197F1F7F89480E00E9495006F3F7D
:100690007F4F8F4F9F4F61F41092F405789480E064
:1006A000A0CF64E170E080E090E00E948902D9CFA1
:1006B00081E00E9495006F3F7F4F8F4F9F4F61F306
:1006C0008E010F5F1F4F6E012FEBC21A2EEFD20A61
:1006D000780180E00E949500F70160837183828336
:1006E000938381E00E949500F7016483758386837C
:1006F0009783F8E0EF0EF11CEC14FD0451F77894A9
:1007000030E020E0F801C080D180E280F3804481B5
:10071000558166817781FFEFCF16DF06EF06FF0672
:1007200031F04F3F8FEF58076807780719F41092A0
:10073000F405B5CFF90183E0F595E7958A95E1F7E2
:10074000ED51FA4F8081880FC416D506E606F706EC
:1007500010F180832F5F3F4F085F1F4F2832310514
:1007600089F64091E7052091E3058091E405280F83
:100770003327331F8091E505280F311D8091E60551
:10078000820F932F911D99274817190681F681E052
:100790008093F40526CF8160DCCF20914402260FA0
:1007A0003327331F21323105ECF42091C504FC01BD
:1007B00090E080E0243069F082E00895A091440246
:1007C0002191AC014C5D5D4FA40FB52FB11D2C9351
:1007D0000196861798F380914402680F6093440253
:1007E00080E0089581E008951092C50481E080932F
:1007F000C40410929F0461E082E10E94DC0161E088
:1008000083E10E94DC01E9EBF0E080818E7F808350
:1008100080818D7F808388E48093B80085E4809315
:10082000BC000895CF93DF9391E090932302882337
:10083000B9F0C091B800D091BA008091BC008A7B19
:100840008093BC0060E082E10E94DC0160E083E113
:100850000E94DC010E94F403D093BA00C093B80058
:10086000DF91CF9108958F929F92AF92BF92CF92D6
:10087000DF92EF92FF920F931F93CF93DF93D0916C
:10088000EE04D13208F0D7C0182FC091ED040E94B9
:1008900064026B017C018091C50481116BC082E010
:1008A0008093C5041093C4048FEF8093C304109207
:1008B000C204D093C104ADECB4E0E1EAF4E080E01E
:1008C000D81391C01092A0048091A004CC0FC82B23
:1008D000C093A00480919F04813009F088C01092D9
:1008E0009F040E9464026B017C018091A0048093AC
:1008F000BB008091C7049091C804A091C904B09135
:10090000CA04892B8A2B8B2BA1F00E9464020091D0
:10091000C7041091C8042091C9043091CA046C190D
:100920007D098E099F09061717072807390708F45C
:1009300042C08091BC0083FDD8CF85EC8093BC0081
:100940000E9464026B017C018091C504823009F42D
:1009500050C08091C3048F3F09F46FC08091C304DD
:10096000803209F46CC08091C304803309F469C0FB
:1009700084E026C08091C7049091C804A091C90466
:10098000B091CA04892B8A2B8B2B09F484CF0E9447
:1009900064028090C7049090C804A090C904B090ED
:1009A000CA046C197D098E099F0986169706A80648
:1009B000B90608F070CF8091C6040E94120485E049
:1009C0001092CC041092EE041092CB04DF91CF91E0
:1009D0001F910F91FF90EF90DF90CF90BF90AF905D
:1009E0009F908F9008959D9191938F5F69CF85EE31
:1009F000A5CF8091C7049091C804A091C904B0917B
:100A0000CA04892B8A2B8B2B09F49ECF0E94640287
:100A10000091C7041091C8042091C9043091CA0400
:100A20006C197D098E099F090617170728073907D2
:100A300008F08ACFC0CF81E0C3CF80E0C1CF82E091
:100A4000BFCF83E0BDCFCF92DF92EF92FF920F93A3
:100A50001F93CF93DF93D82FC62F613208F098C031
:100A60000E9464026B017C018091C50481116BC0FE
:100A700081E08093C5048093C4049FEF9093C304E6
:100A80001092C2049C0F9093C1048093A0048091A3
:100A9000A004DD0FD82BD093A00480919F04813057
:100AA00009F078C010929F040E9464026B017C01DF
:100AB0008091A0048093BB008091C7049091C804EA
:100AC000A091C904B091CA04892B8A2B8B2BA1F069
:100AD0000E9464020091C7041091C8042091C904C7
:100AE0003091CA046C197D098E099F0906171707F2
:100AF0002807390708F448C08091BC0083FDD8CF8F
:100B000085EC8093BC000E9464026B017C018091A3
:100B1000C504813009F440C08091C2048C1710F4E0
:100B2000C091C204E1EAF4E0AFE7B4E080E08C13E6
:100B300055C08C2FDF91CF911F910F91FF90EF90B7
:100B4000DF90CF9008958091C7049091C804A09140
:100B5000C904B091CA04892B8A2B8B2B09F484CF4A
:100B60000E9464020091C7041091C8042091C90436
:100B70003091CA046C197D098E099F090617170761
:100B80002807390708F070CF8091C6040E9412042C
:100B9000C0E0CFCF85EEB5CF8091C7049091C80457
:100BA000A091C904B091CA04892B8A2B8B2B09F41C
:100BB000AECF0E9464020091C7041091C804209136
:100BC000C9043091CA046C197D098E099F09061762
:100BD00017072807390708F09ACFD6CF91919D9330
:100BE0008F5FA5CF0895E091760280917502E81796
:100BF00030F4F0E0E158FB4F808190E008958FEFF2
:100C00009FEF089590917602809175022FEF3FEF4C
:100C1000981748F4E92FF0E0E158FB4F208130E0CD
:100C20009F5F90937602C90108958091750290911B
:100C30007602891B990B0895CF92DF92EF92FF9273
:100C40000F931F93CF93DF937C01CB018A012091F7
:100C5000CB04222389F0EB016B01C40ED51ECC1509
:100C6000DD0569F06991D701ED91FC910190F0816A
:100C7000E02DC7010995F3CF642F0E94CD03C80171
:100C8000DF91CF911F910F91FF90EF90DF90CF9068
:100C90000895CF93DF931F92CDB7DEB7698320917C
:100CA000CB042223F9F02091EE04203258F021E009
:100CB00030E0FC013383228390E080E00F90DF91ED
:100CC000CF9108958091CC04E82FF0E0E353FB4FDF
:100CD000998190838F5F8093CC048093EE0481E0B0
:100CE00090E0ECCF61E0CE0101960E94CD03F7CFFA
:100CF00090E080E008958FB7F89480911D028FBF37
:100D0000089561E0FC0184810E94DC0180911C0255
:100D1000811110921C0208958EBD00000DB407FED3
:100D2000FDCF8EB508958FEF0C948C060F931F9313
:100D3000CF93DF93EC010E94BB028B010E949306CC
:100D40008F3F69F00E94BB02601B710B6C177D071F
:100D5000A8F380E0DF91CF911F910F91089581E07A
:100D6000F9CF8CBD9DBD0895CF93DF93EC018091A9
:100D70001C02811109C081E080931C0280919805BA
:100D8000909199050E94B10660E08C81DF91CF912E
:100D90000C94DC018F929F92AF92BF92FF920F93BF
:100DA0001F93CF93DF93EC01F62E49015A018E81F8
:100DB000882389F08F8198859C012F5F3F4F38876A
:100DC0002F838230924018F40E949306F3CFCE0115
:100DD0000E9481061E82CE010E94B4068CE291E040
:100DE0000E9496068F2D80640E948C0608E110E018
:100DF000D501C401002E04C0B695A7959795879597
:100E00000A94D2F70E948C0608501109083F8FEF10
:100E1000180771F785E9FF2021F028E087E8F21232
:100E20008FEF0E948C0610E00E9493068A8787FF4E
:100E300004C01F3F11F01F5FF7CFDF91CF911F91CB
:100E40000F91FF90BF90AF909F908F900895AF92B9
:100E5000BF92CF92DF92EF92FF920F931F93CF93A7
:100E6000DF93EC016901C801820F931F813092402A
:100E700050F58E81882379F088819981AA81BB8180
:100E800084179507A607B70731F48F819885C81690
:100E9000D90608F042C0488359836A837B838B85D7
:100EA000833039F089E0440F551F661F771F8A95FC
:100EB000D1F79A01AB0161E1CE010E94CA068823F5
:100EC00089F083E08D83CE010E94810680E0DF916E
:100ED000CF911F910F91FF90EF90DF90CF90BF9037
:100EE000AF9008950E94BB025B010E9493068A871F
:100EF0008F3F69F40E94BB026A197B096D32714011
:100F0000A0F38FE08D83CE010E948106DCCF8E3F5F
:100F100089F418861F8281E08E838F8198858C15D5
:100F20009D0550F40E9493068F81988501969887BD
:100F30008F83F3CF8DE0E6CF6701E00EF11E0E94B4
:100F40009306F60181936F01EE15FF05C1F78F81BE
:100F50009885080F191F18870F838985882319F032
:100F600001151240A0F08E81882389F08F81988529
:100F70009C012F5F3F4F38872F838230924018F4B7
:100F80000E949306F3CFCE010E9481061E8281E06B
:100F90009ECFCF92DF92EF92FF920F93CF93DF938A
:100FA000EC01690182E1411551056105710599F076
:100FB0008B85833039F089E0440F551F661F771FFA
:100FC0008A95D1F79A01AB0168E1CE010E94CA0669
:100FD000882319F084E08D832DC08EEF0E948C064B
:100FE00076018EEFD81AF70181917F010E948C065D
:100FF000EC14FD04C1F78FEF0E948C068FEF0E9466
:101000008C060E9493068A878F71853071F40111D6
:1010100016C0CE010E94810681E0DF91CF910F9131
:10102000FF90EF90DF90CF90089581E18D83CE0106
:101030000E948106CE010E94810680E0EECF88E505
:1010400092E00E949606811102C085E1C4CF20E0A3
:1010500030E0A9016DE0CE010E94CA06882311F09C
:1010600084E1B9CF0E9493068111FACFD2CF0F93BA
:1010700040911F0250912002609121027091220242
:10108000411551056105710599F0082F2DE732E0F2
:1010900080917D0490917E040E94C907882349F0C5
:1010A00010921F021092200210922102109222022E
:1010B00081E00F9108950F93CF93C82F80911E0266
:1010C000811105C0C1E08C2FCF910F9108954091FF
:1010D00000015091010160910201709103010C2FF8
:1010E0002DE732E080917D0490917E040E94C90733
:1010F000811102C0C0E0E7CFCC2321F381E00E9440
:1011000037088823B9F310921E02DDCF8F929F9289
:10111000AF92BF92EF92FF920F931F93CF934B0129
:101120005C01C42F8091000190910101A091020106
:10113000B091030188159905AA05BB0551F181E01D
:101140000E945B0881110BC080E0CF911F910F912D
:10115000FF90EF90BF90AF909F908F9008958DE794
:10116000E82E82E0F82E00E012E030E020E0B50149
:10117000A40180917D0490917E040E94270788231A
:1011800019F38092000190920101A0920201B092A5
:10119000030140911E024C2B40931E0281E0D5CFEB
:1011A0008F929F92AF92BF92CF92DF92EF92FF9277
:1011B000CF932AE935E030937E0420937D04882381
:1011C00009F46DC040E060E070E0CB010E94860849
:1011D00081110BC080E0CF91FF90EF90DF90CF9016
:1011E000BF90AF909F908F90089580913B048F7730
:1011F00089F78091470490914804A0914904B091E7
:101200004A0484369105A105B10520F3C09043043A
:10121000D0904404E0904504F0904604C114D104F9
:10122000E104F104B9F240E0C701B6010E9486086A
:10123000882381F2809188029091890281159240E1
:1012400049F6A0918D02AA2329F260918B02709138
:101250008C026115710509F4BDCF20918A02222309
:1012600009F4B8CFA093B8052093AA0590E080E0D8
:1012700030E0E1E0F0E0C82FAF01082E02C0440FDB
:10128000551F0A94E2F72417350769F041E0480F2B
:1012900001968930910579F74093B3059BCFC12C16
:1012A000D12C7601C0CF8093B30520919302309169
:1012B000940250E040E02115310541F42091A10253
:1012C0003091A2024091A3025091A4022093AB0559
:1012D0003093AC054093AD055093AE0546015701E0
:1012E000860E971EA11CB11C8092B9059092BA057A
:1012F000A092BB05B092BC05E0918E02F0918F02E6
:10130000F093BF05E093BE05B0E00E94021FDC0130
:10131000CB01880D991DAA1DBB1D8093C00590931C
:10132000C105A093C205B093C30525E0EE0FFF1FD2
:101330002A95E1F7E150FE4FEF2FFF27E6958E0F3C
:101340009F1FA11DB11D8093B4059093B505A09377
:10135000B605B093B7058090900290909102B12CA1
:10136000A12C8114910441F480909D0290909E02E2
:10137000A0909F02B090A002C81AD90AEA0AFB0AFC
:10138000C80CD91CEA1CFB1C04C0F694E794D79443
:10139000C794CA95D2F7C092AF05D092B005E0923B
:1013A000B105F092B20585EFC8168FE0D806E104CA
:1013B000F10428F48CE08093BD0581E00CCF80E13E
:1013C00025EFC2162FEFD206E104F104A0F38091BD
:1013D000A9029091AA02A091AB02B091AC028093B5
:1013E000C0059093C105A093C205B093C30580E2E8
:1013F000E2CF4F925F926F927F928F929F92AF92C5
:10140000BF92CF92DF92EF92FF920F931F93CF93F1
:10141000DF93EC01423051056105710590F480E0E5
:10142000DF91CF911F910F91FF90EF90DF90CF90C0
:10143000BF90AF909F908F907F906F905F904F90F4
:10144000089589859A85AB85BC850196A11DB11D3E
:1014500084179507A607B70710F3CB88DC88ED88BB
:10146000FE888F89803109F042C0BB27A72F962FB5
:10147000852F480159012A013B01C80ED91EEA1ED9
:10148000FB1E8091000190910101A0910201B09199
:101490000301C816D906EA06FB0699F58F89803143
:1014A000C1F5B301A201552766277727440F551FC1
:1014B00043585D4FFA019182808280911E028160C3
:1014C00080931E028A89823080F08D819E81AF8157
:1014D000B8858C0D9D1DAE1DBF1D80931F0290937E
:1014E0002002A0932102B093220281E099CFDB0178
:1014F000CA01E7E0B695A79597958795EA95D1F744
:10150000B8CF40E0C701B6010E9486088111C6CF5E
:1015100086CFB301A2014F77552766277727440F5F
:10152000551F440F551F43585D4FFA018082918229
:10153000A282B382C2CF8F929F92AF92BF92CF927C
:10154000DF92EF92FF920F931F93CF93DF93FC01F3
:1015500081859285A385B4850196A11DB11D84174F
:101560009507A607B70770F480E0DF91CF911F9130
:101570000F91FF90EF90DF90CF90BF90AF909F9032
:101580008F90089583889488A588B688878980314C
:1015900089F5BB27A72F962F852FE9016A017B01CB
:1015A0008F01BC01CD01680D791D8A1D9B1D8090A6
:1015B000000190900101A0900201B09003018616F5
:1015C0009706A806B90601F5F8018789803111F55B
:1015D000DD24EE24FF24F601EE0FFF1FE358FD4F3C
:1015E00080819181B0E0A0E088839983AA83BB8346
:1015F00081E0BBCFDB01CA01C7E0B695A7959795FF
:101600008795CA95D1F7C9CF40E00E94860881111D
:10161000DBCFAACFE894C7F8DD24EE24FF24F6013F
:10162000EE0FFF1FEE0FFF1FE358FD4F80819181EA
:10163000A281B381BF70D8CF4F925F926F927F9299
:10164000AF92BF92CF92DF92EF92FF920F931F93D0
:10165000CF93DF9300D000D0CDB7DEB78C014983A4
:101660005A836B837C835901C12CD12C7601412C88
:1016700082E0582E612C712C49815A816B817C81CA
:101680009E012F5F3F4FC8010E949B0A882339F1BA
:10169000F8018585A301920104C0220F331F441F66
:1016A000551F8A95D2F7DA01C901C80ED91EEA1E64
:1016B000FB1E49815A816B817C818789803111F1C0
:1016C00088EF9FEFAFEFBFE0481759076A077B0726
:1016D00098F2F501C082D182E282F38281E00F901C
:1016E0000F900F900F90DF91CF911F910F91FF906E
:1016F000EF90DF90CF90BF90AF907F906F905F9012
:101700004F90089588EF9FEFA0E0B0E0DDCFCF933A
:10171000DF93FC012581222321F080E0DF91CF912E
:101720000895EC018091BD05803159F582E08583F3
:10173000178A108E118E128E8091BE059091BF0572
:10174000B0E0A0E025E0880F991FAA1FBB1F2A95D3
:10175000D1F7838B948BA58BB68B86EA95E09C8F13
:101760008B8F81E08C831E821F82188619861A86D1
:101770001B861C861D861E861F86188A198A1A8A51
:10178000CDCF803251F683E085834091C0055091E2
:10179000C1056091C2057091C305478B508F618F61
:1017A000728F9F012D5E3F4F86EA95E00E941C0BD1
:1017B0008111D3CFB2CF8F929F92AF92BF92CF922F
:1017C000DF92EF92FF920F931F93CF93DF93EC0181
:1017D0008D8181110EC080E0DF91CF911F910F911B
:1017E000FF90EF90DF90CF90BF90AF909F908F9041
:1017F00008950B891C892D893E8904171507260732
:10180000370748F34A015B01823031F48A869B86B0
:10181000AC86BD8681E0E0CF81149104A104B104BF
:1018200049F41E821F82188619861A861B861C861A
:101830001D86F0CF0A851B852C853D85EB8DFC8DA3
:10184000858590E00996B901A801415051096109C7
:101850007109082E04C076956795579547950A94A7
:10186000D2F775016401E1E0CE1AD108E108F10870
:1018700004C0F694E794D794C7948A95D2F7C41617
:10188000D506E606F70620F0012B022B032B11F5F7
:101890008F89988DA98DBA8D8E839F83A887B987EC
:1018A0008E010A5F1F4FC114D104E104F10409F451
:1018B000ADCF4E815F816885798598018B8D9C8D38
:1018C0000E949B0A91E0C91AD108E108F108811130
:1018D000EACF81CFC41AD50AE60AF70AE1CF3F92D0
:1018E0004F925F926F927F928F929F92AF92BF9230
:1018F000CF92DF92EF92FF920F931F93CF93DF93DC
:10190000CDB7DEB72C970FB6F894DEBF0FBECDBFB4
:101910005C01DC015B968D909C905C9716964D90D7
:101920005D906D907C90199741145104610471048D
:1019300009F468C0BFEF4B1A5B0A6B0A7B0A312CB3
:10194000F40181859285A385B4859C01AD012F5F4B
:101950003F4F4F4F5F4F29873A874B875C87730113
:1019600062011D821E821F821886F4018185928584
:10197000A385B4852D813E814F815885281739076D
:101980004A075B0708F056C089859A85AB85BC85F8
:101990008C159D05AE05BF0550F482E0C82ED12CF4
:1019A000E12CF12C92E0492E512C612C712C9E01DE
:1019B0002F5F3F4FB701A601C4010E949B0A8823F5
:1019C000C9F189819A81AB81BC81892B8A2B8B2BB0
:1019D00009F1260137019FEF491A590A690A790A64
:1019E0002D813E814F8158852F5F3F4F4F4F5F4F75
:1019F0002D833E834F8358873FEFC31AD30AE30AF0
:101A0000F30AB3CFF40140805180628073803324A5
:101A1000339496CFC414D504E604F70409F70FEF06
:101A20001FEF2FEF3FE0B701A601C4010E94F909A3
:101A3000811119C080E02C960FB6F894DEBF0FBE5E
:101A4000CDBFDF91CF911F910F91FF90EF90DF906D
:101A5000CF90BF90AF909F908F907F906F905F904E
:101A60004F903F900895D50116964D915D916D91DF
:101A70007C911997411551056105710539F0970160
:101A80008601C4010E94F9098823A1F2D5011696A6
:101A9000CD92DD92ED92FC921997332051F0D7014F
:101AA000C6010196A11DB11DF40180839183A2831B
:101AB000B383F5018789908DA18DB28D892B8A2BF7
:101AC0008B2B39F48481C78AD08EE18EF28E8068A8
:101AD0008483F50184818062848381E0ACCF1F938D
:101AE000CF93DF93FC0125812223D1F1162FEC0146
:101AF000848187FF2AC0668577858089918941E046
:101B00000E948608882361F1EA8980E2E89FF0015B
:101B10001124E358FD4F309719F18D81823040F444
:101B20008B899C89AD89BE89848F958FA68FB78F4D
:101B30008F89988D938F828F8F89988DA98DBA8D7B
:101B4000B58BA48B8C818F778C83111103C08C8112
:101B50008F7E8C83812FDF91CF911F910C945B0836
:101B600080E0DF91CF911F910895FF920F931F9313
:101B7000CF93DF93EC018D81813041F090E080E0E4
:101B8000DF91CF911F910F91FF9008958C8181FF7C
:101B9000F5CF82FD1BC000917D0410917E04C80129
:101BA0000E94B4060E949306F82EC8010E94810686
:101BB0008FEFF812E3CF8C8185FF1BC060E0CE0170
:101BC0000E946F0D8C818F7D8C83D8CF4B895C896F
:101BD0006D897E898A859B85AC85BD85841795072F
:101BE000A607B707C1F2CE010E94DB0B8111D3CF4C
:101BF000C5CF40911F025091200260912102709147
:101C00002202452B462B472B21F080E00E9437080B
:101C1000B5CF80618C832A853B85317080E092E06E
:101C2000821B930BADCFCF93DF93EC0161E00E9459
:101C30006F0D882311F01D8281E0DF91CF9108950F
:101C40002F923F924F925F926F927F928F929F92CC
:101C5000AF92BF92CF92DF92EF92FF920F931F93BA
:101C6000CF93DF9300D000D01F92CDB7DEB77C01B9
:101C70005B01342E5D83DC0115968C9115978130C4
:101C800009F0CEC014962C9021FECAC022FCB4C02C
:101C9000C32CDD8022947FE027222094B22DB170E6
:101CA0002B2ED7011A964D915D916D917C911D97C8
:101CB000C114D10409F428C15B968D919C915C9765
:101CC000FC0174807A948A019B0169E0369527951E
:101CD000179507956A95D1F770228A0111707110D6
:101CE00020C001151105E9F416964D915D916D9195
:101CF0007C911997411551056105710509F099C04D
:101D000057968D919D910D90BC91A02D0097A105A6
:101D1000B10509F0B0C0C7010E946F0C882309F417
:101D20007FC080E092E0801B910B46018C159D05E1
:101D300008F44C01D7015B964D915C915C97169627
:101D40008D919D910D90BC91A02D0297A109B10993
:101D5000FA01258504C0880F991FAA1FBB1F2A9569
:101D6000D2F74685578560897189840F951FA61F14
:101D7000B71F9C01AD01270D311D411D511D2901CA
:101D80003A01811432E0930609F07BC08091000192
:101D900090910101A0910201B09103018415950574
:101DA000A605B70559F48FEF9FEFDC018093000182
:101DB00090930101A0930201B0930301022D9501BC
:101DC000B301A20180917D0490917E040E94C90715
:101DD000882331F19EEFB91AC818D908F701828516
:101DE0009385A485B585880D991DA11DB11D828798
:101DF0009387A487B58755CFF701438954896589AF
:101E0000768982859385A485B585481759076A0721
:101E10007B0709F43DCFC7010E94DB0B811138CF4E
:101E200081E090E0D70113969C938E93129780E007
:101E300007C09E012F5F3F4F0E949B0A811102C085
:101E400090E079C089819A81AB81BC81F701238DB3
:101E5000348DF901278948EF5FEF60E070E02031B1
:101E600021F048EF5FEF6FEF7FE084179507A6073B
:101E7000B70708F050CFF70186839783A087B18713
:101E800050CF0115110599F5D7011A964D915D9125
:101E90006D917C911D9753968D919D910D90BC9164
:101EA000A02D481759076A077B0708F181E00E94B7
:101EB0005B08882309F4B4CF4092000150920101DD
:101EC000609202017092030180911E0281608093F2
:101ED0001E02C80183589D4FD5019C01280D391D54
:101EE000FC012E173F0759F04D914193FACF41E085
:101EF000C301B2010E9486088111EBCF91CF281B4C
:101F0000390BA20EB31E68CFF70183899489A58986
:101F1000B68984179507A607B70738F48481438BE1
:101F2000548B658B768B80688483F701848183FD75
:101F30001AC0832D9D810F900F900F900F900F90DE
:101F4000DF91CF911F910F91FF90EF90DF90CF9095
:101F5000BF90AF909F908F907F906F905F904F90C9
:101F60003F902F90089561E0C7010E946F0D882374
:101F700009F456CFDECFCF93DF931F92CDB7DEB7F4
:101F8000698341E050E0BE016F5F7F4F0E94200EE9
:101F90000F90DF91CF910895FC01DB0112968D9196
:101FA0009C9113979383828384E491E0918380834F
:101FB00014968C911497848315968C91159785832C
:101FC00016964D915D916D917C911997468357833B
:101FD000608771871A964D915D916D917C911D97E7
:101FE00042875387648775871E964D915D916D91E9
:101FF0007C91519746875787608B718B52968C9155
:102000005297828B53964D915D916D917C9156972D
:10201000438B548B658B768B57964D915D916D916B
:102020007C915A97478B508F618F728F5B968D9101
:102030009C91948F838F08950895FC01818D928DDA
:10204000009719F061E00C946F0D0895DC0159962A
:10205000ED91FC913097B9F083899489A589B6896F
:102060004285538564857585841B950BA60BB70B3C
:10207000811520E89207A105B10538F08FEF9FE7A1
:10208000A0E0B0E0089590E080E00895DC0159966A
:102090008D919C91009739F0DC01ED91FC910480C9
:1020A000F581E02D099490E080E00895CF93DF93CF
:1020B000EC01E98DFA8D309749F481E090E09B8343
:1020C0008A8390E080E0DF91CF910895138212829D
:1020D000898D9A8D0E94200EE98DFA8D228133819F
:1020E000232B59F7F0CFCF93DF931F92CDB7DEB7F5
:1020F0006983DC01ED91FC910280F381E02D41E0E8
:1021000050E0BE016F5F7F4F09950F90DF91CF9137
:1021100008952F923F924F925F926F927F928F928B
:102120009F92AF92BF92CF92DF92EF92FF920F9366
:102130001F93CF93DF9300D01F92CDB7DEB7FC0182
:102140008581811118C08FEF9FEF0F900F900F9036
:10215000DF91CF911F910F91FF90EF90DF90CF9083
:10216000BF90AF909F908F907F906F905F904F90B7
:102170003F902F900895848180FFE5CF4389548953
:102180006589768982859385A485B585312C212C36
:10219000481759076A077B0719F022242394312C2A
:1021A0006F012101CE0101963C01DF011696BB8330
:1021B000AA834114510409F4C5C0F6014285538530
:1021C000648575854A01F1E09F22D6015B968D9169
:1021D0009C915C978A019B01E9E0369527951795BC
:1021E0000795EA95D1F71596EC91E230E9F5FC01F7
:1021F000628D738D848D958D600F711F821F931F6B
:10220000A12C22E0B22EA818B9084A145B0408F4E5
:102210005201F601248126FD04C0A114F2E0BF069C
:1022200071F400910001109101012091020130919F
:102230000301061717072807390709F05EC040E0B9
:102240000E948608882309F47ECFC40183589D4FDD
:10225000D3019C012A0D3B1DFC012E173F0709F4F9
:102260006CC041914D93F9CFDC011496BC90BA94A7
:10227000B0228114910479F4B1100DC0452B462B86
:10228000472B69F5F6018789908DA18DB28D8683E4
:102290009783A087B187D6015B96ED91FC915C97FF
:1022A00016966D917D918D919C911997625071094F
:1022B00081099109258504C0660F771F881F991F22
:1022C0002A95D2F70685178520893189600F711FFD
:1022D000821F931F6B0D711D811D911D91CFD60122
:1022E00016964D915D916D917C9119972A813B8154
:1022F0000E949B0A8111CFCF26CF730185019401E3
:10230000AB01BC0180917D0490917E040E9427075F
:10231000882309F418CF6A0C7B1CF601828593850B
:10232000A485B5858A0D9B1DA11DB11D828793874C
:10233000A487B5874A185B083CCF281B390B620E6F
:10234000731EEBCF2A94232809F0FDCE898190E0FB
:10235000FCCEFC01818D928D009711F00C948910B8
:102360008FEF9FEF08950F931F93CF93DF93EC01AF
:10237000898D9A8D10E000E0009799F00E948910F5
:102380008C010F3F100769F0898D9A8DFC01428501
:1023900053856485758541505109610971090E9411
:1023A000DB0BC801DF91CF911F910F910895CF9260
:1023B000DF92EF92FF921F93CF93DF93EC0180E2C5
:1023C000689FF0011124E358FD4F9385917161F0EE
:1023D000842F827449F080E0DF91CF911F91FF90AC
:1023E000EF90DF90CF900895142F6A8B80910001B9
:1023F00090910101A0910201B09103018E879F8706
:10240000A88BB98BC488D588F12CE12C7601DD240A
:10241000CC24CF8AD88EE98EFA8E828D938DB0E04F
:10242000A0E0AC01BD014C295D296E297F294F8BAD
:10243000588F698F7A8F83858871B1F4848D958DDB
:10244000A68DB78D8B8B9C8BAD8BBE8B81E08D83E6
:102450001F701C831E821F82188619861A861B868F
:102460001C861D8681E0B8CF803109F0B4CF9E0173
:102470002D5E3F4F8B8D9C8D0E941C0B882309F491
:10248000AACF84E0E4CFFB0101900020E9F7319767
:10249000AF01461B570BDC01ED91FC910280F381EB
:1024A000E02D09948F929F92AF92BF92EF92FF928C
:1024B0000F931F93CF93DF93CDB7DEB7A1970FB6DE
:1024C000F894DEBF0FBECDBF7C01FA01CB0119A28B
:1024D000223008F42AE08E010F5D1F4F822E912CCE
:1024E000B12CA12CBF01A50194010E946B20F90120
:1024F000CA016A300CF5605DD8016E938D01232B03
:10250000242B252B79F790E080E0109721F0BD0176
:10251000C7010E944312A1960FB6F894DEBF0FBE0A
:10252000CDBFDF91CF911F910F91FF90EF90BF90A2
:10253000AF909F908F900895695CDECF462F50E05A
:1025400070E060E02AE00C945212CF93DF93BC015C
:102550008FEE94E00E944312EC016CE471E08FEE88
:1025600094E00E9443128C0F9D1FDF91CF9108953C
:102570002F923F924F925F926F927F928F929F9293
:10258000AF92BF92CF92DF92EF92FF921F93CF93C1
:10259000DF93EC016A017B01722EAB019601CB0146
:1025A000B6010E9466206FE471E0811126C04601E9
:1025B0005701E894B7F82FEF3FEF4FE75FE7C5010A
:1025C000B4010E94662081110CC02FEF3FEF4FE74E
:1025D0005FE7C501B4010E94DE1D63E571E01816D6
:1025E00064F02FEF3FEF4FE75FE4C701B6010E94B1
:1025F00061201816B4F467E571E0CE01DF91CF9148
:102600001F91FF90EF90DF90CF90BF90AF909F9081
:102610008F907F906F905F904F903F902F900C9491
:1026200043122FEF3FEF4FE75FECC701B6010E9467
:10263000DE1D87FDE0CF20E030E0A901C701B60133
:102640000E94DE1D312C212C87FF09C06DE2CE01D6
:102650000E9473101C01F7FAF094F7F8F09410E060
:1026600060E070E080E09FE3711641F020E030E030
:1026700040E251E40E94C01F1F5FF6CFA701960100
:102680000E94541F2B013C010E9432204B015C012F
:102690002AE0BC01A401CE010E9452127C01E20C8E
:1026A000F31C1123C1F1C501B4010E94E31D9B017C
:1026B000AC01C301B2010E94531F4B015C016EE2E9
:1026C000CE010E947310E80EF91E115020F120E097
:1026D00030E040E251E4C501B4010E94441E2B01E8
:1026E0003C010E9432204B01B12CA12C2AE0B50103
:1026F000A401CE010E945212E80EF91EC501B401D8
:102700000E94E31D9B01AC01C301B2010E94531F53
:102710004B015C01DACFC701DF91CF911F91FF9090
:10272000EF90DF90CF90BF90AF909F908F907F9071
:102730006F905F904F903F902F9008950F931F934D
:10274000CF93DF93EC0188819981009759F02A811A
:102750003B812617370730F081E0DF91CF911F9141
:102760000F9108958B016F5F7F4F0E94B8210097F2
:1027700059F0998388831B830A832C813D81232B05
:1027800059F7FC011082E8CF80E0E7CFCF93DF93C9
:10279000EC01198218821B821A821D821C8270E051
:1027A00060E00E949E132881398181110FC021159C
:1027B000310519F0C9010E942F21198218821D824A
:1027C0001C821B821A82DF91CF9108951D821C8288
:1027D0006EE471E0C901DF91CF910C948B2285EDFD
:1027E0008093BC008091C7049091C804A091C90453
:1027F000B091CA040796A11DB11D23E0B695A79517
:10280000979587952A95D1F72091BC0024FD03C0A8
:102810001092C50408954091C7045091C804609176
:10282000C9047091CA04452B462B472B69F30097C6
:10283000A105B10541F025E32A95F1F700000197C4
:10284000A109B109E1CF8091C6040C9412043F9212
:102850004F925F926F927F928F929F92AF92BF92B0
:10286000CF92DF92EF92FF920F931F93CF93DF935C
:10287000CDB7DEB72B970FB6F894DEBF0FBECDBF36
:102880007C01FE013196CE010C966F0130E231934E
:10289000E817F907E1F7DA0130E087E09D91B92EFA
:1028A000992309F43CC09E32F1F48A30C9F480E0E7
:1028B0002B960FB6F894DEBF0FBECDBFDF91CF9140
:1028C0001F910F91FF90EF90DF90CF90BF90AF904E
:1028D0009F908F907F906F905F904F903F90089562
:1028E00038E08AE0DBCFE8E6F0E04491442321F0D1
:1028F00031969413FACFDBCF8317C8F24FED490F0F
:102900004E35A8F64FE9490F4A3118F440EEB42E7F
:10291000B90EF601E30FF11DB0823F5FBFCF898191
:10292000803229F2322E8B01DB015B968D919C91D6
:102930005C97F701948F838F16961D921D921D92BE
:102940001C921997FB011286138614861586F801CE
:1029500082859385A485B58543895489658976895F
:1029600084179507A607B70708F04DC025E0B69570
:10297000A795979587952A95D1F7F82FFF70AF2ED9
:10298000D80115968C91823008F491CFC8010E942D
:10299000891097FD8CCFF80182859385A485B58534
:1029A0004F96A11DB11D82879387A487B587F0E25A
:1029B000AF9EB001112463587D4F6115710509F474
:1029C00076CFDB018C91882341F0853E09F062C00F
:1029D000BB2029F0BB24B394BACFB1100EC0F701CD
:1029E000A28A8091000190910101A0910201B09111
:1029F000030186879787A08BB18BDB018C918111B6
:102A0000E9CFBB24B394832D8271823109F04FCF7B
:102A1000BB2009F44DC0F7016685778580899189CF
:102A200041E00E948608882309F441CFD7015296DD
:102A30008C91B0E28B9FC001112483589D4F009769
:102A400009F435CFFC013A9626E1DF011D922A9563
:102A5000E9F72BE0F601DC0101900D922A95E1F7F0
:102A600021E238E2FC01318B208B40E058E05787AF
:102A70004687338B228B318F208F578B468B81E09B
:102A80000E945B08882309F412CF432DD701529688
:102A90006C910AC04BE050E0C6010E947522892B60
:102AA00009F055CF432D6A2DC7010E94D71100CFE1
:102AB000F8018581823009F4FACEC8010E946F0CBA
:102AC000882309F4F4CED8015B96ED91FC915C97D4
:102AD00016968D909D90AD90BC901997B2E08B1A90
:102AE0009108A108B108858504C0880C991CAA1C0E
:102AF000BB1C8A95D2F786859785A089B189880EF7
:102B0000991EAA1EBB1E848124013501480E511C4A
:102B1000611C711C84149504A604B70409F1E1E05A
:102B20004E1A51086108710881E00E945B088823F1
:102B300009F4BDCEEDE7F2E011928DE794E08E1737
:102B40009F07D1F74092000150920101609202016B
:102B50007092030180911E02816080931E02DACF81
:102B6000D8015B96ED91FC91258580E092E0A0E094
:102B7000B0E004C0880F991FAA1FBB1F2A95D2F787
:102B8000F8014389548965897689840F951FA61FAA
:102B9000B71F838B948BA58BB68BD70152961C9253
:102BA0008DE792E04FCFEF92FF920F931F93CF9359
:102BB000DF93EC017B018A011B821A8288EE93E08D
:102BC000A0E0B0E08C839D83AE83BF838EE091E074
:102BD000998388838DE190E00E9493209A8F898F5A
:102BE000009779F02DE1F701DC0101900D922A9513
:102BF000E1F74CE050E0B801CE010C960E94922221
:102C0000188EDF91CF911F910F91FF90EF90089553
:102C10001F920F920FB60F9211242F933F934F9351
:102C20005F936F937F938F939F93AF93BF93EF9334
:102C3000FF938FEE94E00E944D01FF91EF91BF91C1
:102C4000AF919F918F917F916F915F914F913F9144
:102C50002F910F900FBE0F901F9018951F920F92FB
:102C60000FB60F9211242F938F939F93EF93FF939F
:102C7000E091FF04F09100058081E0910505F0915D
:102C8000060582FD1BC09081809108058F5F8F73C0
:102C900020910905821741F0E0910805F0E0E1512B
:102CA000FB4F958F80930805FF91EF919F918F9136
:102CB0002F910F900FBE0F901F9018958081F4CF29
:102CC0001F920F920FB60F9211242F933F938F9361
:102CD0009F93AF93BF938091680290916902A091F6
:102CE0006A02B0916B023091670223E0230F2D3707
:102CF00058F50196A11DB11D2093670280936802CB
:102D000090936902A0936A02B0936B0280916C0267
:102D100090916D02A0916E02B0916F020196A11D7B
:102D2000B11D80936C0290936D02A0936E02B093DC
:102D30006F02BF91AF919F918F913F912F910F9013
:102D40000FBE0F901F90189526E8230F0296A11D25
:102D5000B11DD2CF1F920F920FB60F9211242F9355
:102D60003F934F935F936F937F938F939F93AF9313
:102D7000BF93EF93FF938091B900887F803609F469
:102D80004AC0F0F5883209F4A7C018F5803109F47B
:102D90009BC0B8F4882309F4F9C0883009F494C0C2
:102DA000FF91EF91BF91AF919F918F917F916F9123
:102DB0005F914F913F912F910F900FBE0F901F90F9
:102DC0001895883109F488C0803251F78093C30484
:102DD00014C0803409F49DC040F48033B9F38833C3
:102DE000F9F68093C30485ECB0C0803509F485C042
:102DF000883509F496C0883499F60E94EF13D0CF35
:102E0000883909F48CC038F5883729F050F48836B1
:102E100011F0803729F683E08093C5041092660292
:102E200057C0883809F47BC0803919F0803809F020
:102E3000B7CF80916602803208F071C0E0916602DF
:102E400081E08E0F809366028091BB00F0E0EA5B28
:102E5000FD4F80833DC0803B39F0E0F4803A09F4B7
:102E600079C0883A09F09CCF84E08093C504109221
:102E7000450210924402E0917302F09174020995A8
:102E80008091440281110FC081E08093440210922E
:102E9000240209C0803C09F4A6CF883C09F4A3CFE2
:102EA000883B09F07DCFE091450281E08E0F809351
:102EB0004502F0E0EC5DFD4F80818093BB00909176
:102EC00045028091440229C08091A0048093BB00F8
:102ED00085EC8093BC0064CF9091C2048091C104C2
:102EE000981758F5E091C20481E08E0F8093C204D8
:102EF000F0E0EF55FB4F8081E9CFE091C20481E023
:102F00008E0F8093C2048091BB00F0E0EF55FB4F21
:102F100080839091C2048091C1049817C8F285E81B
:102F2000D8CFE091C20481E08E0F8093C2048091DB
:102F3000BB00F0E0EF55FB4F80838091C40481110A
:102F40005CCF81E080939F0484EA8093BC00109260
:102F5000C50426CF85EC8093BC001092C5048091F7
:102F60006602803230F4E0916602F0E0EA5BFD4FE9
:102F700010826091660270E0E0917102F09172023D
:102F800086E492E00995109266020ACF1092C3047B
:102F900034CFEFEEF4E01382128288EE93E0A0E0EB
:102FA000B0E084839583A683B78320E231E0318348
:102FB000208325EC30E03587248724EC30E0378708
:102FC000268720EC30E0318B208B21EC30E0338BF6
:102FD000228B22EC30E0358B248B26EC30E0378BD3
:102FE000268B118E128E138E148EECE8F5E0138270
:102FF000128284839583A683B78382E391E09183D1
:103000008083E8E9F5E080E580831182EAE9F5E074
:10301000158216821186138682E090E0A0E0B0E06F
:1030200084879587A687B78713A215A614A684E47C
:1030300091E093A782A717A68CEF95E00E94C61394
:1030400086EF95E00E94C613A3EEB5E082E01596E8
:103050008C9315978BE016968C931697E0ECF0E026
:10306000E4911796EC931797ECEAF0E0E491189648
:10307000EC93189740E85EE360E070E01D964D9396
:103080005D936D937C9350970895CF93DF93CDB765
:10309000DEB7CA57D1090FB6F894DEBF0FBECDBF59
:1030A000789484B5826084BD84B5816084BD85B523
:1030B000826085BD85B5816085BD80916E0081602F
:1030C00080936E00109281008091810082608093D5
:1030D00081008091810081608093810080918000D7
:1030E0008160809380008091B10084608093B10002
:1030F0008091B00081608093B00080917A008460FC
:1031000080937A0080917A00826080937A00809127
:103110007A00816080937A0080917A008068809341
:103120007A001092C10062E08091E8050E942802B6
:103130000E94BB02605D7740810991096093EC05B4
:103140007093ED058093EE059093EF0587E38093F0
:10315000F50560E084E00E94280260E085E00E94BE
:103160002802E091FF04F091000582E08083E09165
:10317000FB04F091FC041082E091FD04F091FE0448
:103180008FEC808310920705E0910305F091040510
:1031900086E08083E0910105F091020580818061E5
:1031A0008083E0910105F091020580818860808331
:1031B000E0910105F0910205808180688083E091B3
:1031C0000105F091020580818F7D808368EB7BE0B3
:1031D00080E090E00E9489028BE591E00E94A512B8
:1031E0008091C905882321F084EC95E00E94130E9C
:1031F0001092A5051092A3051092A00510929F05AC
:103200008AE080939E050E94BB028B0161E0809161
:103210009E050E94280261E080919E050E94DC01CB
:10322000FFB6F89480917002811127C0E4EBF0E0C2
:103230008491E8ECF0E09491E82FF0E0EE0FFF1FAE
:10324000EA56FF4FA591B491EC91E92321F461E096
:103250008AE00E94DC0161E08AE00E9428028CB5CD
:1032600080618CBD8CB580648CBD61E08DE00E9476
:10327000280261E08BE00E942802809170028F5F3B
:1032800080937002FFBE82E58093980510929905A5
:1032900080919805909199050E94B1069AE0F92EC7
:1032A0008FEF0E948C06FA94F110FACF8AE995E02C
:1032B0000E94B40620E030E0A90160E08AE995E0D0
:1032C0000E94CA06F82E8093A40521E0821709F413
:1032D0006DC00E94BB02601B710B613D774050F3D3
:1032E00081E080939F058AE995E00E94810684E849
:1032F00091E00E94A512A8EE2A2EA3E03A2E412CBE
:10330000512CF8E66F2EC0907902D0907A02E090AE
:103310007B02F0907C02B0E3CB0EB5E7DB1EE11C34
:10332000F11C0E94BB02C616D706E806F90608F093
:10333000E5C30E94BB026093790270937A02809386
:103340007B0290937C0268E070E086EF95E00E943B
:103350009E132091F6053091F705811179C1211551
:10336000310519F0C9010E942F211092F705109222
:10337000F6051092FB051092FA051092F9051092CD
:10338000F8050E94C702882351F08091E9058C302E
:1033900009F4C3C108F068C18B3009F47FC1C12CA6
:1033A000D12C70ECE72E7FE7F72EA2C12AEA31E09C
:1033B00040E050E068E08AE995E00E94CA0682FF9A
:1033C0002AC0F092A5058091A505C12CD12CE12C35
:1033D000B0E4FB2E823019F0C12CD12C760120E014
:1033E00030E0A90167E38AE995E00E94CA06A701D7
:1033F000960169E28AE995E00E94CA068093A405D5
:103400008823D1F00E94BB02601B710B613D7740A5
:1034100030F388E066CF84E0F82E0E949306809314
:10342000A405FA94F110F9CF8A3A11F082E059CF4D
:1034300082E08093A505C7CF8091A5058230D1F4A5
:1034400020E030E0A9016AE38AE995E00E94CA061B
:10345000882311F086E045CF0E949306807C803C53
:1034600019F483E08093A5050E9493060E949306B9
:103470000E9493068AE995E00E94810680E5809388
:1034800098051092990581E00E94D0088823A9F13F
:1034900084EC95E00E94870B882309F428CF83E70A
:1034A00091E00E94A5128CE895E0909378028093B9
:1034B000770210927602109275021092CC0410924C
:1034C000EE040E94F4038DEC90E0909374028093DC
:1034D00073028EEC90E0909372028093710281E00F
:1034E0008093CB0488E68093ED0481E00E9433044E
:1034F00081110AC08FE991E009C080E00E94D008E4
:10350000882309F4F4CEC4CF82E991E00E94A51289
:10351000809177029091780221E02093CB0428E6F5
:103520002093ED041092CC041092EE04DC01ED9196
:10353000FC910190F081E02D60E0099581E00E940E
:10354000330461E088E60E9423051092760280939E
:1035500075028091770290917802DC01ED91FC91E7
:103560000284F385E02D099587FF04C08FEA91E07E
:103570000E94A512809177029091780221E0209319
:10358000CB0428E62093ED041092CC041092EE04B4
:10359000DC01ED91FC910190F081E02D60E0099556
:1035A0008091770290917802DC01ED91FC9101907D
:1035B000F081E02D60E0099580917702909178028A
:1035C000DC01ED91FC910190F081E02D68E109951D
:1035D0008091770290917802DC01ED91FC9101904D
:1035E000F081E02D67E10995809177029091780252
:1035F000DC01ED91FC910190F081E02D60E00995F6
:103600008091770290917802DC01ED91FC9101901C
:10361000F081E02D62E00995809177029091780227
:10362000DC01ED91FC910190F081E02D61E10995C3
:103630008091770290917802DC01ED91FC910190EC
:10364000F081E02D61E2099581E00E94330453CEC0
:1036500088E090E09093FB058093FA0565EC71E0BB
:10366000C9010E948B228DCE8551823008F097CE01
:103670001091E505612F70E0762F662766277F772A
:103680008091E605682B90E080E00E94E31D2DEC20
:103690003CEC4CEC5DE30E94441E5BC06091E50590
:1036A00070E090E080E00E94E31D6B017C011091CE
:1036B000E60517FF0AC0AC019B0160E070E080E8FE
:1036C0009FEB0E94531F6B017C011F70612F70E004
:1036D00090E080E00E94E51D2DEC3CEC4CEC5DE3BD
:1036E0000E94441EA70196010E94541F6B017C0199
:1036F0000E94C702882351F08091E9058B3030F099
:103700008D3080F18551823008F405C2812C912CD6
:1037100060ECA62E6FE7B62E43C01091E505612F31
:1037200070E090E080E00E94E31D6B017C016091FD
:10373000E6056F7070E090E080E00E94E51D2DECE2
:103740003CEC4CEC5DE30E94441EA70196010E94F4
:10375000541F6B017C0117FFCBCFF7FAF094F7F8F9
:10376000F094C6CF6091E40570E090E080E00E94A4
:10377000E51D2DEC3CEC4CEC5DE30E94441E4B013E
:103780005C016091E30570E090E080E00E94E51D3F
:103790009B01AC01C501B4010E94541F4B015C01A7
:1037A000809177029091780221E02093CB0460927F
:1037B000ED041092CC041092EE04DC01ED91FC912A
:1037C0000190F081E02D60E0099581E00E943304D2
:1037D00067E088E60E9423051092760280937502C6
:1037E0008091770290917802DC01ED91FC91028446
:1037F000F385E02D0995782E8091770290917802DB
:10380000DC01ED91FC910284F385E02D0995E596AC
:103810009FAF8EAFE5978091770290917802DC019F
:10382000ED91FC910284F385E02D0995E7969FAF19
:103830008EAFE7978091770290917802DC01ED914D
:10384000FC910284F385E02D099580917702909197
:103850007802DC01ED91FC910284F385E02D09955D
:10386000E9969FAF8EAFE9978091770290917802A9
:10387000DC01ED91FC910284F385E02D0995EB9636
:103880009FAF8EAFEB978091770290917802DC0129
:10389000ED91FC910284F385E02D09958C011C8249
:1038A0001B8284E491E09A8389831E82CE01019673
:1038B0000E94870BBE016F5F7F4FCE01CB960E94A7
:1038C000CC0F19A218A2A4E4B1E0BF8FAE8F1BA247
:1038D00021968FAD2197811130C16C961FAE1EAE1F
:1038E0006C97A0962CAE3DAE4EAE5FAEA0978EE02C
:1038F00091E06A969FAF8EAF6A97E3961FAE1EAEB9
:10390000E397A5961FAEA597E396EEADFFADE397BF
:10391000309709F43DC18581882309F439C1E894C1
:1039200077F8A80184E0559547958A95E1F74F709F
:103930005527842F880F880F481B440F040F402FF2
:1039400050E04053584F70E060E02AE0CE01885AC2
:103950009F4F0E94521260E072E0CE01885A9F4F42
:103960000E944312EB966EAD7FADEB9794E0759598
:1039700067959A95E1F76F707727862F880F880FE4
:10398000681B660FEA969FADEA97690FCE01885AC9
:103990009F4F0E949E126EEC71E0CE01885A9F4F9D
:1039A0000E944312E9966EAD7FADE99724E07595CC
:1039B00067952A95E1F76F707727862F880F880F14
:1039C000681B660FE896AFADE8976A0FCE01885A7C
:1039D0009F4F0E949E1260E072E0CE01885A9F4F76
:1039E0000E944312E7966EAD7FADE79734E0759580
:1039F00067953A95E1F76F707727862F880F880FC4
:103A0000681B660FE696BFADE6976B0FCE01885A2E
:103A10009F4F0E949E1260ED71E0CE01885A9F4F29
:103A20000E944312E5966EAD7FADE59744E0759533
:103A300067954A95E1F76F707727862F880F880F73
:103A4000681B660FE4962FADE497620FCE01885A8B
:103A50009F4F0E949E1260ED71E0CE01885A9F4FE9
:103A60000E944312672D70E054E0759567955A9552
:103A7000E1F7862F880F880F681B660F670DCE0150
:103A8000885A9F4F0E949E1260E072E0CE01885AD1
:103A90009F4F0E94431262ED71E0CE01885A9F4F02
:103AA0000E94431222E0B701A601CE01885A9F4F1F
:103AB0000E94B81267EE71E0CE01885A9F4F0E94B3
:103AC000431222E0B501A401CE01885A9F4F0E9403
:103AD000B8126CE471E0CE01885A9F4F0E944312E5
:103AE000E3968EAD9FADE397009741F00E94130ED1
:103AF000E3968EAD9FADE3970E942F2180E090E08A
:103B0000892B09F400CC0E943901882309F4F9CBF0
:103B10000E940000F6CB6091E3057091E4057627E2
:103B20006727762790E080E00E94E31D2DEC3CECB7
:103B30004CEC5DE30E94441E31CE27E140E152E0AF
:103B4000BE01655C7F4FCE014E960E9427148823EC
:103B500009F4C3CECE01CB960E94130E49A95AA9EF
:103B60006BA97CA9CE014E960E94DB0BBE01625E62
:103B70007F4FCE0101960E94CC0F40E152E0BE0182
:103B80006F5F7F4FCE01885A9F4F0E94D315BCCEE6
:103B900082E092E00E94A512B1CF8091F60590914B
:103BA000F705009711F00E942F218091FC0590915C
:103BB000FD05009711F00C942F2108950E94201EFE
:103BC00008F481E00895E89409C097FB3EF49095CD
:103BD0008095709561957F4F8F4F9F4F9923A9F0E6
:103BE000F92F96E9BB279395F69587957795679575
:103BF000B795F111F8CFFAF4BB0F11F460FF1BC0B9
:103C00006F5F7F4F8F4F9F4F16C0882311F096E94B
:103C100011C0772321F09EE8872F762F05C06623F9
:103C200071F096E8862F70E060E02AF09A95660FB2
:103C3000771F881FDAF7880F9695879597F908956B
:103C4000990F0008550FAA0BE0E8FEEF16161706AD
:103C5000E807F907C0F012161306E407F50798F015
:103C6000621B730B840B950B39F40A2661F0232B2E
:103C7000242B252B21F408950A2609F4A140A695AA
:103C80008FEF811D811D08950E94571E0C94C81E40
:103C90000E94BA1E38F00E94C11E20F0952311F038
:103CA0000C94B11E0C94B71E11240C94FC1E0E949F
:103CB000D91E70F3959FC1F3950F50E0551F629F79
:103CC000F001729FBB27F00DB11D639FAA27F00D75
:103CD000B11DAA1F649F6627B00DA11D661F829F9C
:103CE0002227B00DA11D621F739FB00DA11D621F81
:103CF000839FA00D611D221F749F3327A00D611D9E
:103D0000231F849F600D211D822F762F6A2F11247F
:103D10009F5750409AF0F1F088234AF0EE0FFF1FB2
:103D2000BB1F661F771F881F91505040A9F79E3F09
:103D3000510580F00C94B11E0C94FC1E5F3FE4F31F
:103D4000983ED4F3869577956795B795F795E7955F
:103D50009F5FC1F7FE2B880F911D9695879597F968
:103D6000089597F99F6780E870E060E008959FEFFD
:103D700080EC089500240A94161617061806090602
:103D8000089500240A9412161306140605060895D1
:103D9000092E0394000C11F4882352F0BB0F40F459
:103DA000BF2B11F460FF04C06F5F7F4F8F4F9F4F99
:103DB000089557FD9058440F551F59F05F3F71F01B
:103DC0004795880F97FB991F61F09F3F79F0879582
:103DD0000895121613061406551FF2CF4695F1DF0B
:103DE00008C0161617061806991FF1CF869571059B
:103DF000610508940895E894BB2766277727CB01CF
:103E000097F908950E94441FA59F900DB49F900DAF
:103E1000A49F800D911D112408952F923F924F92DF
:103E20005F926F927F928F929F92AF92BF92CF924A
:103E3000DF92EF92FF920F931F93CF93DF93CDB753
:103E4000DEB7CA1BDB0B0FB6F894DEBF0FBECDBFCB
:103E500009942A88398848885F846E847D848C849C
:103E60009B84AA84B984C884DF80EE80FD800C81A5
:103E70001B81AA81B981CE0FD11D0FB6F894DEBF88
:103E80000FBECDBFED010895A29FB001B39FC00149
:103E9000A39F700D811D1124911DB29F700D811D76
:103EA0001124911D08955058BB27AA270E946B1F0B
:103EB0000C94C81E0E94BA1E38F00E94C11E20F049
:103EC00039F49F3F19F426F40C94B71E0EF4E095D4
:103ED000E7FB0C94B11EE92F0E94D91E58F3BA17C4
:103EE000620773078407950720F079F4A6F50C9410
:103EF000FB1E0EF4E0950B2EBA2FA02D0B01B9017D
:103F000090010C01CA01A0011124FF27591B99F04F
:103F1000593F50F4503E68F11A16F040A22F232F5B
:103F2000342F4427585FF3CF469537952795A795AB
:103F3000F0405395C9F77EF41F16BA0B620B730B52
:103F4000840BBAF09150A1F0FF0FBB1F661F771FC3
:103F5000881FC2F70EC0BA0F621F731F841F48F478
:103F6000879577956795B795F7959E3F08F0B0CF01
:103F70009395880F08F09927EE0F979587950895E8
:103F80000E94D41F0C94C81E0E94C11E58F00E94AB
:103F9000BA1E40F029F45F3F29F00C94B11E511174
:103FA0000C94FC1E0C94B71E0E94D91E68F3992332
:103FB000B1F3552391F3951B550BBB27AA27621725
:103FC0007307840738F09F5F5F4F220F331F441F32
:103FD000AA1FA9F335D00E2E3AF0E0E832D0915066
:103FE0005040E695001CCAF72BD0FE2F29D0660F53
:103FF000771F881FBB1F261737074807AB07B0E896
:1040000009F0BB0B802DBF01FF2793585F4F3AF09B
:104010009E3F510578F00C94B11E0C94FC1E5F3F3E
:10402000E4F3983ED4F3869577956795B795F79521
:104030009F5FC9F7880F911D9695879597F9089509
:10404000E1E0660F771F881FBB1F621773078407A5
:10405000BA0720F0621B730B840BBA0BEE1F88F7B4
:10406000E09508950E94E11E88F09F5798F0B92FBF
:104070009927B751B0F0E1F0660F771F881F991F9D
:104080001AF0BA95C9F714C0B13091F00E94FB1E26
:10409000B1E008950C94FB1E672F782F8827B85F36
:1040A00039F0B93FCCF3869577956795B395D9F7F5
:1040B0003EF490958095709561957F4F8F4F9F4FFF
:1040C00008950E94201E08F48FEF08950E94201E7C
:1040D000880B990B0895A1E21A2EAA1BBB1BFD01A8
:1040E0000DC0AA1FBB1FEE1FFF1FA217B307E407D7
:1040F000F50720F0A21BB30BE40BF50B661F771F2F
:10410000881F991F1A9469F760957095809590950E
:104110009B01AC01BD01CF010895EE0FFF1F05907B
:10412000F491E02D09940F931F93CF93DF93823086
:10413000910510F482E090E0E0910406F09105060C
:1041400030E020E0B0E0A0E0309799F4211531058F
:1041500009F44AC0281B390B24303105D8F58A816F
:104160009B816115710589F1FB0193838283FE01B7
:1041700011C0408151810281138148175907E0F035
:104180004817590799F4109761F012960C931297FB
:1041900013961C933296CF01DF91CF911F910F910F
:1041A00008950093040610930506F4CF21153105F8
:1041B00051F04217530738F0A901DB019A01BD0104
:1041C000DF01F801C1CFEF01F9CF9093050680938D
:1041D0000406CDCFFE01E20FF31F8193919322508D
:1041E000310939832883D7CF209102063091030605
:1041F000232B41F4209106013091070130930306EF
:10420000209302062091040130910501211531050A
:1042100041F42DB73EB74091080150910901241B8C
:10422000350BE0910206F0910306E217F307A0F4C4
:104230002E1B3F0B2817390778F0AC014E5F5F4FFC
:104240002417350748F04E0F5F1F50930306409325
:104250000206819391939FCFF0E0E0E09CCFCF9353
:10426000DF930097E9F0FC01329713821282A0914C
:104270000406B0910506ED0130E020E01097A1F4AE
:1042800020813181820F931F209102063091030615
:104290002817390709F061C0F0930306E09302067E
:1042A000DF91CF910895EA01CE17DF07E8F54A8143
:1042B0005B819E0141155105B1F7E901FB83EA835A
:1042C00049915991C40FD51FEC17FD0761F4808106
:1042D00091810296840F951FE901998388838281D9
:1042E00093819B838A83F0E0E0E012968D919C910C
:1042F00013970097B9F52D913C911197CD01029636
:10430000820F931F20910206309103062817390768
:1043100039F6309751F51092050610920406B093C5
:104320000306A0930206BCCFD383C2834081518190
:10433000840F951FC817D90761F44E5F5F4F8881BE
:104340009981480F591F518340838A819B819383B0
:1043500082832115310509F0B0CFF0930506E09373
:1043600004069ECFFD01DC01C0CF13821282D7CF9D
:10437000B0E0A0E0EEEBF1E20C940F1F8C0100978F
:1043800051F4CB010E9493208C01C801CDB7DEB758
:10439000E0E10C942B1FFC01E60FF71F9C0122505B
:1043A0003109E217F30708F49DC0D901CD91DC91E2
:1043B0001197C617D70798F0C530D10530F3CE0155
:1043C00004978617970708F3C61BD70B2297C1934C
:1043D000D1936D937C93CF010E942F21D6CF5B01A7
:1043E000AC1ABD0A4C018C0E9D1EA0910406B09122
:1043F0000506512C412CF12CE12C109731F58091C0
:104400000206909103068815990509F05CC04616CE
:10441000570608F058C0809104019091050100975B
:1044200041F48DB79EB74091080150910901841B5A
:10443000950BE817F90708F055C0F0930306E093D1
:104440000206F90171836083A0CF8D919C91119731
:1044500012966C90129713967C901397A815B90535
:1044600059F56C0142E0C40ED11CCA14DB0420F1E2
:10447000AC014A195B09DA011296159780F0628245
:10448000738251834083D9016D937C93E114F104CD
:1044900071F0D7011396FC93EE93129776CF229684
:1044A0008C0F9D1FF90191838083F301EFCFF0936F
:1044B0000506E093040669CF4816590608F42C0156
:1044C0007D01D3019ACFCB010E9493207C010097FC
:1044D00049F0AE01B8010E948222C8010E942F213A
:1044E000870153CF10E000E050CFFB01DC0104C096
:1044F0008D910190801921F441505040C8F7881BDC
:10450000990B0895FB01DC0102C001900D9241500E
:104510005040D8F70895FB01DC0101900D92002076
:10452000E1F70895FB01DC014150504048F0019053
:104530000D920020C9F701C01D9241505040E0F794
:10454000089510E0CAE6D0E004C0FE010E948D206C
:0C4550002196CB36D107C9F7F894FFCFB5
:10455C00FFFFFFFF00000606800000000000731044
:10456C00561046101D102610A911B31100000000A2
:10457C006F01CF00FC00BC012D010B011F010000DD
:10458C00000049061C067806F20515060206F3051E
:10459C0000000000BB0FCF00B50D1C100D0A006E03
:1045AC00616E00696E66006F766600496E697469AB
:1045BC00616C697A696E6720534420636172642E62
:1045CC002E2E006361726420696E697469616C6976
:1045DC007A65640053442043617264206572726F83
:1045EC0072004E6F2052544320666F756E640052F9
:1045FC00544320636C6F636B20666F756E6400525E
:10460C005443206973206E6F7420636F6E66696704
:10461C0075726564004D792056616C7565002D00CE
:10462C003A0020232054656D706572617475722098
:10463C00696E20433A20002023204C756674666511
:10464C007563687469676B65697420696E20253AB7
:10465C0020006572726F722077726974696E6720C0
:0C466C00646174616C6F672E74787400D8
:00000001FF
